:1000000018050020951A0000911A0000911A0000AE
:1000100000000000000000000000000000000000E0
:10002000000000000000000000000000911A000025
:100030000000000000000000911A0000911A00006A
:10004000911A0000911A0000911A0000911A000004
:10005000911A0000911A0000911A0000911A0000F4
:10006000911A0000190C0000290C0000911A0000E0
:1000700001120000911A0000911A0000911A00006C
:10008000911A0000911A0000911A000010B5064C58
:100090002378002B07D1054B002B02D0044800E049
:1000A00000BF0123237010BD1400002000000000D9
:1000B0004C1E000008B5084B002B03D00748084928
:1000C00000E000BF07480368002B03D0064B002B5D
:1000D00000D0984708BDC046000000004C1E00003C
:1000E000180000204C1E00000000000000B583B086
:1000F00001AB80221A700A785A704A789A708A780E
:10010000DA70191C014B984703B000BD3D1A00007E
:1001100010B5031C4908402099420CD30024C91A89
:10012000601C80B28B4201D8041CF8E74020FF2CF1
:1001300001D81480002010BD10B582B0041C0F4BF4
:100140001B78002B01D000290DD001A90C700D20C7
:100150000B4B98470D200B4B9847084B5C700122C6
:100160001A70002007E0054B5A781D20141B621EF0
:1001700094416442204002B010BDC04630000020CF
:1001800065190000D9180000174B984203D0174B8F
:10019000984211D021E0012921D0002904D0022960
:1001A00006D0032906D001E011481BE0002019E029
:1001B000104817E0104815E0012912D0002904D09A
:1001C000022906D0032906D001E00C480AE00020ED
:1001D00008E00B4806E00B4804E0002002E00A4873
:1001E00000E00A487047C04600080042000C004288
:1001F00002000E00030008000300090002001E00B8
:10020000020018000200190002000F0002001F0087
:100210007047C04608B5054B1B78002B00D1C0467F
:10022000034804490022044B984708BD7800002089
:1002300084000020C4000020E905000010B5034838
:10024000034901220023034CA04710BD8400002075
:100250007800002009090000F0B591B002AB01213F
:100260001970002203920492C020800305901A7432
:100270005A749974D9741A7524201A5409920A92DE
:10028000414808900C920D920E920F923F4C182309
:1002900023706270A27068464170827001701820ED
:1002A00069463B4B98472378D9090022002903D19E
:1002B0005A09D201374952181F2119400123181C2D
:1002C00088409061344C0F22227001AA51786170ED
:1002D0009278A27069464B7000228A700B700F20D2
:1002E0002B4B98472378D9090022002903D15A09BA
:1002F000D201284812181F273B400126311C994083
:100300009161264B08930023049380235B0205939D
:10031000234B0C9301235B420D93224B0E93224BF4
:100320000F93224D281C224902AA224B98472C6881
:10033000201C214B98470740BE40204B1E602A6876
:10034000D369002BFCD12268022313432360174C8E
:10035000201C1B4901221B4EB0473725625D02233A
:1003600013436355201C18490022B047625D0123E6
:1003700013436355201C15490222B047625D0423D4
:100380001343635511B0F0BDA0860100C0000020EA
:10039000ED00000000440041C40000208096980059
:1003A00002000E000200040002000500840000208C
:1003B00000080042DD030000ED0B000000E100E05A
:1003C00011020000F10800003D02000015020000CB
:1003D00008B5014B984708BD59020000F0B54746E3
:1003E00080B488B0051C0C1C161C29600B681C20EE
:1003F0009A0700D5D9E00B680520DA0700D5D4E0CC
:10040000081C6C4B98476C4B196A821C012797405B
:100410003A1C0A431A6207A92427F35D0B700E30B9
:10042000C0B28046654B98474046654B9847F05DA3
:100430000021644B98473378012B03D122680C23A9
:10044000134323603378002B00D0ABE022680823ED
:1004500013432360A6E0EA18D16004331C2BFAD1C1
:100460000023EB62AB620024AB862B863623EC5470
:100470003723EC543823EC5403236B722C71286817
:100480004C4B9847071C5049504B9847BF00504B66
:10049000FD502F6802AB80221A705C7001229A70A6
:1004A000DC70B36A0393F06A0490326B0592736B4D
:1004B00006930024E1B2A30003AA9858002802D1B1
:1004C000381C444A9047431C06D06A461072000C00
:1004D000C0B202A9404B98470134042CEAD13378CA
:1004E0006B71337CAB71B37CEB71337D2B7200226B
:1004F0006B46DA803378012B14D128682D4B98474E
:100500000E30C0B2354B9847011CB0696A460632BE
:10051000334B9847031C1720002B46D16B460633FC
:100520001B783B733378002B0FD1B169B38B786A9A
:10053000F47F2404B27F224302437A622022B25C19
:10054000002A04D04022134301E000230021B268B6
:1005500070680243F06802430A43317C0B43717CAC
:10056000002903D11F498978880701D580210A43D2
:10057000B17C002902D0802189020B43F17C002943
:1005800002D0802189000B43317D002902D08021D7
:1005900089010B4339680A433A607A6813437B60E8
:1005A000002002E00023002155E708B004BC90467B
:1005B000F0BDC0468D0B000000040040651900002E
:1005C000D918000039010000A9090000B90B00008A
:1005D000CC000020890100003D1A000081190000B4
:1005E000110100000020004110B544791523012CB1
:1005F0006CD1047A0023002C68D1002A57D04B78A4
:10060000002B44D00268137EDC070FD40B78D90985
:100610000022002903D15A09D2012D4952181F2165
:100620000B4001219940916105234FE00B78DC09D3
:100630000022002C03D15A09D201254C12191F2483
:10064000234001249C405461897803681A7ED407B2
:1006500000D59962C2790023002A37D102680421AB
:10066000137E0B42FCD0117E00234C072ED5538BFA
:10067000590703D5518B04230B4353838379012BF3
:1006800002D1936A002321E0936A00231EE00B78D5
:10069000D9090022002903D15A09D2010C4C1219A0
:1006A0001F210B4001219940516100230EE00B787E
:1006B000D9090022002903D15A09D201044952184C
:1006C0001F210B400121994091610023181C10BD8E
:1006D00000440041F0B55F4656464D464446F0B4EE
:1006E00083B0041C92463823C05CC0B2052800D1F8
:1006F000F1E01720002A00D1EDE06379002B05D14D
:100700002368187E820701D50220187655460020FE
:1007100001230226B4460427BB468FE06279002AF3
:1007200001D0266816E02268167E1E4206D16D4E64
:10073000177E1F4202D1013E002EF9D1167E674678
:100740003E4203D0022313760420C4E0127E1A42F4
:10075000E7D1B3E0327E1A42FCD0421C92B29046FE
:100760000F5CA279012A01D0404605E0023080B238
:1007700042468A5C12021743327E1A4202D0FF05BB
:10078000FF0DB7626A1E96B2E279002A01D1351CCC
:1007900056E06279002A37D1534A01912668377EA4
:1007A0001F421CD0471CBFB2B9460199095C88465C
:1007B000A779012F01D0484608E0023080B20199A4
:1007C0004F46C95D090247460F43B846377E1F4270
:1007D00003D04746F905CF0DB762013DADB226689B
:1007E000377E59460F4202D1013A002AD6D10199EB
:1007F000327E67463A4203D00223337604206AE011
:10080000327E5E4632425BD02668327E5F463A4296
:10081000FBD0327E3A420DD0728B3A4204D0728BBA
:1008200004273A4392B27283A279012A01D1B26AB3
:1008300000E0B26A5246013A92B29246013DADB230
:100840002A4A954200D069E751466379012B05D1C8
:10085000216802220B7E1342FCD033E0002B33D1FF
:10086000E3790020002B36D000292FD004251D4E1F
:10087000042750461CE00A7E2A4202D1013B002B8D
:10088000F9D10B7E2B4223D00B7E2B420CD04B8B0D
:100890002B4203D04B8B3B439BB24B83A379012B61
:1008A00001D18B6A00E08B6A013880B2002811D038
:1008B00021680B7E2B42E4D1331CDCE712200AE0D6
:1008C000122008E0002006E0002004E0002002E002
:1008D000122000E0002003B03CBC90469946A2469E
:1008E000AB46F0BD1027000011270000FFFF0000FD
:1008F000931C9B00C3185960012393401A1C362394
:10090000C15C0A43C254704730B5041C1720002A4A
:1009100024D0E5791C20002D20D03820205CC0B2E6
:1009200005281BD00E48038022866286A16205221C
:100930003823E2540023637222686379012B04D1C7
:10094000637A59424B41043306E0002B03D1022362
:100950001376062300E004239375002030BDC046C3
:10096000C800002030B5041C1720002B1AD0E579F0
:100970001C20002D16D03820205CC0B2052811D0D4
:10098000A3862386A262E16205223823E254022371
:10099000637223689A7562790020002A02D10222CC
:1009A0001A769A7530BDC046F8B58000744BC458AD
:1009B00025683623E35C3722A75C1F402B7EAE7D83
:1009C0001E40F10749D56379012B16D1637A002BBC
:1009D0000FD16C4B1B88AB62638E013B9BB263866D
:1009E000638E9BB2002B01D101232B756379012B00
:1009F00003D1637A002B05D12FE0002B2DD1637A30
:100A0000002B2AD02268E36A1978C9B2581CE06228
:100A1000A079012804D15878000201430233E3622F
:100A2000CB05DB0D9362A38E013B9BB2A386A38E05
:100A30009BB2002B11D101232B75637A012B0CD1B2
:100A4000E379002B09D10323637200223823E25497
:100A5000FA0702D5201CE3689847710761D56B8BB4
:100A60005A0714D5637A012B0BD01E223823E25487
:100A70000323637205232B753B0702D5201CA16954
:100A80008847AB6A6A8B042313436B8349E0637A1C
:100A9000012B16D123689B6A638E013B9BB2638650
:100AA000638E9BB2002B3CD104232B75002238238C
:100AB000E25403236372FA0733D5201CE368984796
:100AC0002FE023689A6AD205D20DD3B2A16A0B70C7
:100AD000A36A591CA162A179012904D1120A5A7092
:100AE000A36A0133A362238E013B9BB22386238E2C
:100AF0009BB2002B15D100223823E25404232B751E
:100B0000637A022B05D17A070BD5201C63699847BD
:100B100007E0637A002B04D1B90702D5201C2269B3
:100B20009047B30713D56379002B10D107232B759A
:100B300002232B76032363720023A38623863823A4
:100B40000022E254F90602D5201CE26990473307DF
:100B50000AD56379002B07D108232B752B76B906AC
:100B600002D5201C226A9047F60907D080232B75F6
:100B70002B767B0602D5636A201C9847F8BDC046D9
:100B8000CC000020C80000207047C04630B583B0BC
:100B90006B46084A30CA30C3031C009A824205D013
:100BA0000020019C9C4203D1012000E00020C0B243
:100BB00003B030BD601D000030B5094B1B78002B21
:100BC00009D1074B074D5D60074A002414609D6002
:100BD000546001221A708000014B1818416030BD2A
:100BE00038000020890B0000CC00002030B583B015
:100BF000051C01AC201C054908310222044B984712
:100C0000281C044B9847205603B030BD601D0000DF
:100C10004D1D00008D0B000008B5024B5B680020E5
:100C2000984708BD3800002008B5024B9B6801209A
:100C3000984708BD3800002000207047002303605B
:100C40004C4A42608372C372037343720372C3617E
:100C5000036243628362037543758375C3750376CC
:100C60004376037443748374C3742C2283542D22FB
:100C700083542E2283542F228354302283543122D2
:100C800083543222835433228354342283543522B2
:100C90008354362283543722835438228354392292
:100CA00083543A2283543B2283543C2283543D2272
:100CB00083543E2283543F22835440228354412252
:100CC0008354422283544322835444228354452232
:100CD0008354462283544722835448228354492212
:100CE00083544A2283544B2283544C2283544D22F2
:100CF00083544E2283544F228354502283545122D2
:100D000083545222835453228354542283545522B1
:100D100083545622835457228354982283548365E4
:100D2000836799228354C365C3679A2283540366F9
:100D3000802283509B2283544366842283509C22CA
:100D400083548366882283509D228354C3668C22F9
:100D500083509E2283540367902283509F228354A2
:100D60004367942283500121A0228154A1228354FD
:100D70007047C046FFFFFF00F0B55F4656464D4640
:100D80004446F0B48DB0061C0C1C151C081CCE4B40
:100D90009847031CCD4A106A202101431162226842
:100DA0001C20910700D5D9E12268D70700D5D5E1ED
:100DB0001720C74A2968914200D9CFE16F6897424E
:100DC00000D9CBE1E869904200D96BE1296A9142F0
:100DD00000D969E16F6A974200D967E1A86A904239
:100DE00000D965E10022A91898310978002902D0BC
:100DF000072A00DD5EE10132082AF4D12A7C013A9B
:100E000051424A41120603926A7C012A08D180228B
:100E10009204039F17430397AA7C012A0AD103E097
:100E2000AA7C012A00D08BE18022D204039F1743C1
:100E3000039785E1EA7C012A04D180221205039FF1
:100E400017430397A122AA5C002A04D08022120132
:100E5000039F174303972F7B0697EF7A07972A7A0A
:100E6000511E8A41920004926A7A012A02D1049F9B
:100E7000174304972A1C2C32507A032800D921E109
:100E80002C22AF5C0F2F00D91CE12C214919884678
:100E90003622521993460AA90BAA02924246B0463C
:100EA0005E46A146AA469B460AE0321C707A032899
:100EB00000D907E137780A3604310F2F00D901E154
:100EC0003D06F0231B051D405478240493785F1ED3
:100ED000BB41DB010193D7787B1E9F41FF00009748
:100EE00017797B1E9F413F01BC468002C0273F010E
:100EF0003840054350790323184005432C4390792B
:100F00004001602738400443D0790002C0239B0091
:100F100018400443107A0003E027FF013840221CE8
:100F20000243019B1343009F1F43604607430F602A
:100F3000029A9142B9D146464C4655465B465146C7
:100F4000413100270022012080460220FF308146E7
:100F5000802040028446A81850300078002809D02C
:100F6000072A00D9A8E06046904007430878002887
:100F700006D10EE0087800280BD0072A00D99DE0A2
:100F8000022803D148469040074302E04046904083
:100F9000074301320231082ADDD1A9E08022120381
:100FA0004146114388460022101CB11848600432A3
:100FB000302AFAD1002291467263B2639B00454AFF
:100FC0009E503460A023EA5C3C23F25409A9AB7A1A
:100FD0000B701120404B98471120404B98477821C7
:100FE00049194E4601229146231C0C1C9A46AB1906
:100FF00098331B78002B13D0484622236B4418707B
:101000000023232169440B70236808AA137021214F
:1010100069440870231C203B1878111C304A904703
:1010200001360434082EE2D15446079B1A02069872
:101030000303134303990B4323600422A3681A425A
:10104000FCD1FF2323710422A3681A42FCD1049A25
:1010500062710A9BE3600B982061A761214AA36833
:101060001342FCD14146E1631022A3681A42FCD12D
:101070002A6862631C4AA3681342FCD16B6823642C
:101080001C3500211948021C8A40A3681342FCD178
:1010900004CD0B1C10339B00E3185A600131042966
:1010A000F1D10DE0172059E0172057E0172055E047
:1010B000172053E0172051E017204FE017204DE094
:1010C00000204BE0172049E0390C000000040040EC
:1010D000FFFFFF00D400002065190000D9180000B0
:1010E0003D1A0000400002008000040000010800DA
:1010F0006A7E1201302111402A7E072002401143EE
:1011000088462A7D002A20D0802252021143884638
:101110001BE080229202404610438046AA7D002AAE
:1011200003D108E0AA7D002A13D08022D2024146D2
:10113000114388460DE0EA7D002A00D02EE732E711
:10114000EA7C012A00D07DE677E66A7D002AE0D1BC
:10115000E8E7EA7D002A00D020E724E70DB03CBC98
:1011600090469946A246AB46F0BDC0469200831811
:101170005960034BD358426B1343436300207047BD
:101180006C1D000038B5041C0D1C0068074B984707
:1011900080225201064B1A60AD00064BEB58A26B41
:1011A0001A43A2632268936238BDC046390C00001E
:1011B00000E100E06C1D0000F0B5474680B48000FF
:1011C0000D4BC6583368DB6A726B1340B26B1A4022
:1011D00090460024094FE55943462B4205D0331968
:1011E0005B68301C98473368DD620434302CF2D1E0
:1011F00004BC9046F0BDC046D40000206C1D000029
:1012000008B50020014B984708BDC046B911000041
:101210000C4B1B68002B10D1EFF31083002B09D16E
:1012200072B6BFF35F8F0022074B1A700122054B85
:101230001A7102E00022034B1A71024B1A68013244
:101240001A6070474C00002000000020084B1A680C
:10125000013A1A601B68002B09D1054B1B79002B42
:1012600005D00122034B1A70BFF35F8F62B670473F
:101270004C0000200000002008B5082834D8800069
:101280001B4B1B589F468020000230E0194B186909
:101290002DE0194B186A8005800F184BC340181CAD
:1012A00025E0144B586922E0124B1B6802201840BD
:1012B0001DD011491022CB681A42FCD00D4B1B687F
:1012C0005A0713D500200E4B98470A4B9B681B0406
:1012D0001B0C58430BE05023074AD35C00205A07ED
:1012E00005D5044BD86802E0002000E0054808BDA1
:1012F0009C1D0000540000200008004000127A00ED
:1013000081190000006CDC0270B50C4B1C6A01787E
:10131000857840780122104080014026B443044380
:101320002A40D00180229443221C02430320014022
:101330000902034802400A431A6270BD00080040D7
:10134000FFFCFFFFF0B55F4656464D464446F0B4FD
:10135000254A948A45780378594259418A468378C8
:101360009C46C178884603799946467B077B817BFA
:101370008B4680681D4B586101235146880004212B
:101380008C43044348461840C00008218C43044362
:1013900040461840000110218C4304436046184029
:1013A000400120218C430443181C38408001402711
:1013B000BC430443181C3040C0018026B44304439E
:1013C0000720284000020A4D2C40044359460B4098
:1013D00019030848231C03400B4393823CBC9046EE
:1013E0009946A246AB46F0BD0008004054000020DC
:1013F000FFF8FFFFFFEFFFFF70B5041CC168037D1E
:10140000012B05D1038A081C191C1F4B9847011C8E
:10141000A36818011C4B98470F2202400009657809
:10142000AD012378DB011D43EDB2184B44215D541F
:101430001504411E0905090D29439964E578ED005D
:10144000A178090329432579AD002943A57C03260A
:1014500035402943258A2D040D4E35402943E67C2D
:101460003602E025ED0035402943257D2D0130264B
:1014700035402943D96400011218E068424312093B
:10148000044BDA6070BDC046611C000000080040DB
:101490000000FF0754000020082843D88000224B9A
:1014A0001B589F4600203EE0204B196A02220A4347
:1014B0001A62002037E01D4B996902220A439A61A3
:1014C000002030E0194B198A02220A431A820020B8
:1014D00029E0164B998A02220A439A82002022E0D0
:1014E000134B196802220A431A601A68114B1A40FA
:1014F0000E4B9A84191C1022CB681A42FCD00C4A5D
:1015000091680A4BD96251689962126892B29A84C2
:10151000002008E0054A4423D05C02210143D15455
:10152000002000E017207047C01D000000080040A8
:10153000540000207FFF0000082832D880001A4B9A
:101540001B589F46194B1A6A02218A431A620020CF
:1015500028E0164B9A6902218A439A61002021E013
:10156000124B1A8A02218A431A8200201AE00F4B7A
:101570009A8A02218A439A82002013E00C4B1A684F
:1015800002218A431A601A6892B2084B9A8400209A
:1015900008E0064A4423D15C02208143D154002054
:1015A00000E017207047C046E41D0000000800401E
:1015B00054000020082820D88000114B1B589F465B
:1015C00001201BE0012310E002230EE010230CE0B9
:1015D00050230C4AD05C032318400338434258413F
:1015E000C0B20BE0082300E00423064AD06818408C
:1015F000C01A43425841C0B200E000207047C046C4
:10160000081E00000008004070B58EB0C222D20053
:101610003C4B9A603C4B5A681E218A4302210A4384
:101620005A600AA80023037083708022120282602D
:10163000C3700122027103738373032242704373E8
:10164000324B98470520324B98472E490222CB68EF
:101650001A42FCD02B4B998A80220A439A8209A80D
:10166000002444700125857004702A4B9847062099
:10167000274EB047284B984701956A46547014721C
:1016800054720523137001206946244B98470120AA
:10169000234B984703A844708470C4700471214B95
:1016A000836080231B02C36005820475C474847444
:1016B00004701D4B98470820B04712485021032260
:1016C000435C1340032BFBD10E4A4423D05C8021A2
:1016D00049420143D154154A002313725372937245
:1016E000012201926A4653701372537208231370D9
:1016F00000206946094B98470020094B98470EB0D7
:1017000070BDC04600080040004000414513000085
:10171000991400000913000031170000551700004C
:1017200009180000006CDC02F913000000040040FE
:10173000064B996908220A439A610122044B1A70E8
:10174000191C0B781342FCD17047C04600040040BE
:10175000000C0040F8B5061C071C0D782D0205434F
:101760004B78002B02D08023DB021D434B7A002BE9
:1017700002D080231B031D434C68012C17D9631E24
:101780001C420FD1022C06D90223002201325B0039
:101790009C42FBD800E000221702374380235B0302
:1017A0001D4304E02702374380239B021D430B7A2D
:1017B000002B02D080239B031D430F4A53785BB25A
:1017C000002BFBDB0D4B98470D4B1E700A4A5378DC
:1017D0005BB2002BFBDB084B9F601A1C53785BB29B
:1017E000002BFBDB044B5968802252020A40154350
:1017F0005D60044B9847F8BD000C004011120000DA
:10180000080C00404D12000010B5041C0B4A537820
:101810005BB2002BFBDB0A4B98470A4B1C70074A54
:1018200053785BB2002BFBDB044B596880225202D9
:101830000A435A60044B984710BDC046000C004054
:1018400011120000040C00404D12000070B5041C81
:101850001A4A53785BB2002BFBDB194B9847194BA4
:101860001C70164A53785BB2002BFBDB134E70687A
:10187000C004C00E144B9847051C124B1C707668B0
:10188000F602F60F114B1C700C4A53785BB2002B1A
:10189000FBDB0A4B9C68240AA4B20D4B9847002E30
:1018A00007D1012C07D9281C211C0A4B9847051C7D
:1018B00001E00134E540281C70BDC046000C00402A
:1018C00011120000040C004079120000080C0040C6
:1018D0004D120000611C000010B5041C064B984717
:1018E000064B1C70064B59888022D2010A435A804D
:1018F000044B984710BDC04611120000020C004076
:10190000000C00404D12000010B5041C0F4B98470E
:101910000F4B1C700F4B58880005000F59880E4A5A
:101920000A405A8059880D4A0A405A80191C802260
:10193000D2014B881342FCD1064B01025888064A5B
:1019400002400A435A80064B984710BD111200000E
:10195000020C0040000C0040FFF0FFFFFFBFFFFF44
:101960004D12000010B50C7824020443024B984736
:10197000A4B2024B5C8010BD09190000000C0040AD
:1019800010B5041C064B9847064B1C70064B5C8830
:101990002405240F054B9847201C054B984710BD84
:1019A00011120000020C0040000C00404D1200001B
:1019B0004D18000030B5D4780023002C1DD11378C9
:1019C000802B04D01B0680246402234300E0002304
:1019D00054780225AC430AD19478002C03D180249A
:1019E000A402234302E0C024E4022343416054786C
:1019F000013C012C01D8104C23400D042D0CA024D7
:101A0000E4052C431C4384620D0CD02424062C4393
:101A10001C438462D478002C0CD15C0305D59378E8
:101A2000012B01D1816100E041615378013B012B21
:101A300000D8816030BDC046FFFFFBFF08B5031C26
:101A40000A1CC1090020002903D15809C00104491A
:101A500040181F210B4001219940024B984708BDB7
:101A600000440041B51900007047C04608B5044B5A
:101A70009847044B9847044B9847044B984708BD38
:101A800009160000691A0000691A0000691A0000AE
:101A9000FEE7C04610B5194B194A9A4203D0194BBC
:101AA000164A9A4204D3184B184A9A4210D31BE0A4
:101AB000174B14480330C01A8008013080000023FF
:101AC0000E490F4AD458CC5004338342FAD1EAE786
:101AD0000E4B1A1D0C490331891A890889005218C6
:101AE000002102C39342FCD10A4BFF210A4A8A43D8
:101AF0009A600A4B98470A4B9847FEE7000000207F
:101B00004C1E0000140000201801002014000020CA
:101B10000400002000ED00E000000000011D0000B6
:101B20004D1B0000084B1B78002B0CD0064B5A783D
:101B3000013AD2B25A705B78002B04D1024B0022DA
:101B40001A70FF225A7070477400002070B5AAB056
:101B5000304B9847304C0820A0470028FBD02F4B33
:101B6000984701AC2E4E201C311C2E4B9847002369
:101B7000A3720523E3722C4B63602C4D281C311C8F
:101B8000221C2B4B98472B68022299680A42FCD1F1
:101B9000196802220A431A60244C201C254900229D
:101BA000254B9847201C0021244B98472448254961
:101BB0000022254B9847254B01221A7064225A7047
:101BC0001A78002AFCD11E4C214E201C311C012207
:101BD0001D4DA847201C1F4901221F4B9847201C60
:101BE000311C0022A847194B01221A7032225A7068
:101BF0001A78002AFCD1124C201C15490122124BE4
:101C00009847201C13490131104A04320323134C16
:101C1000A047FEE76D1A0000B5150000D1030000D3
:101C2000001400423D0C0000EE020000D80000202D
:101C3000790D0000251B00006D11000085110000CA
:101C400084000020C0000020E9050000740000208E
:101C5000C400002004000020D50600006509000033
:101C6000002934D00123002210B488422CD301244F
:101C70002407A14204D2814202D209011B01F8E7E4
:101C8000E400A14204D2814202D249005B00F8E79D
:101C9000884201D3401A1A434C08A04202D3001BC9
:101CA0005C0822438C08A04202D3001B9C082243FC
:101CB000CC08A04202D3001BDC082243002803D03A
:101CC0001B0901D00909E3E7101C10BC704700286C
:101CD00001D00020C04307B4024802A1401802907E
:101CE00003BDC046190000000029F0D003B5FFF77E
:101CF000B9FF0EBC4243891A1847C0467047C04618
:101D000070B50E4B0E4D0024ED1AAD101E1CAC42EA
:101D100004D0A300F35898470134F8E700F086F8A0
:101D2000084B094D0024ED1AAD101E1CAC4204D026
:101D3000A300F35898470134F8E770BD381E00003F
:101D4000381E0000381E00003C1E000010B50023A5
:101D5000934203D0CC5CC4540133F9E710BD0000BA
:101D600000080042000C0042090A000001000000C7
:101D70000200000004000000080000000010000045
:101D80000020000000400000008000000000010072
:101D90000000020000000400000008008C12000097
:101DA000E8120000E812000086120000861200000F
:101DB000A212000092120000A8120000D612000029
:101DC000C41400002415000024150000A414000011
:101DD000B6140000D2140000A8140000E0140000A3
:101DE0001415000060150000A2150000A2150000E7
:101DF000A2150000521500006E15000044150000E9
:101E00007C15000092150000C4150000FA150000B2
:101E1000FA150000C0150000E8150000C815000004
:101E2000E4150000CC150000D0150000F8B5C04640
:101E3000F8BC08BC9E467047B5000000F8B5C04627
:0C1E4000F8BC08BC9E4670478D000000F6
:101E4C0001000000C0030F0000000000A000000013
:041E5C00AAABAC641D
:0400000300001A954A
:00000001FF
